:0400000033EF02F0E8
:10000800FACF02F0FBCF03F0E9CF04F0EACF05F016
:10001800E1CF06F0E2CF07F0D9CF08F0DACF09F048
:10002800F3CF0AF0F4CF0BF0F6CF0CF0F7CF0DF0CA
:10003800F8CF0EF0F5CF0FF0F2A433D00001000195
:10004800E62B00010001E651460AD8A429D04B66E8
:1000580010D0016E010E4B6E0150000100019A058F
:10006800D8A416D000010001A26712D0899A8A9AF2
:100078000FD0016E000E4B6E0150000100019A0571
:10008800D8A406D000010001A26702D0898A8A8A12
:10009800016E000E00010001E66F0150424A432A3A
:1000A800F294A4AA09D10F0122A507D00F010101DA
:1000B8001DCF70F101010101716B0F0122A306D060
:1000C8000F010F0122990F010F0122890F010F0162
:1000D8001D51410AD8A4EFD0A4A8FED781B402D0FC
:1000E800020E05D081B202D0000E01D0010E0F0120
:1000F8000F011C6F016E000E000100018E6F015090
:10010800000100018905D8A403D0000100018E81F7
:1001180000010001E505D8A403D0000100018E8389
:1001280000010001C705D8A403D0000100018E8595
:1001380000010001CA05D8A403D0000100018E8780
:1001480000010001CF05D8A403D0000100018E8969
:100158004850110A4910D8A403D0000100018E8B21
:10016800A4A8FED78EC01CFFA4A8FED7C6C01CFF3B
:10017800A4A8FED7C9C01CFFA4A8FED7CEC01CFFE8
:10018800A4A8FED750C11CFFA4A8FED751C11CFFCC
:10019800A4A8FED752C11CFFA4A8FED7016E000E6A
:1001A80000010001D76F0150016E000E010101012D
:1001B800506F0150016E000E01010101516F015095
:1001C800016E000E01010101526F0150016E000E17
:1001D80000010001DA6F015000010001C805D8A430
:1001E80003D000010001DA81016E000E0001000158
:1001F800C86F015000010001CD05D8A403D000014B
:100208000001DA83016E000E00010001CD6F01507C
:1002180000010001D205D8A403D000010001DA854D
:10022800016E000E00010001D26F0150A4A8FED794
:10023800DAC01CFF016E000E00010001856F01503D
:100248008BA003D00001000185818BA203D000019F
:100258000001858389AA03D000010001858589AC46
:1002680003D000010001858789AE03D00001000199
:10027800858991A803D000010001858BA4A8FED729
:1002880085C01CFF016E000E00010001866F015041
:1002980091A003D000010001868191A403D0000140
:1002A800000186838AAA03D0000100018685A4A8DC
:1002B800FED786C01CFFA49AA1AA79D002CF9EF0CF
:1002C800000100019E51D8B471D0016E010E0001E9
:1002D8000001D56F01509EC0D6F0030E0001000149
:1002E800D75DD8B012D000010001D751010D01012E
:1002F800500EF324D96E0101010EF420DA6E0001CC
:100308009EC0DFFF00010001D72B00010001C6518C
:1003180000010001D6630BD0016E010E000100013F
:10032800C86F015000010001C76725D032D0000115
:100338000001C95100010001D6630BD0016E010E06
:1003480000010001CD6F015000010001CA6713D000
:1003580020D000010001CE5100010001D66319D060
:10036800016E010E00010001D26F01500001000171
:10037800CF6701D00ED0016E010E00010001896F18
:100388000150000E00010001846F000E0001836F10
:100398000DD0016E010E00010001E56F0150000E45
:1003A80001010101A56F000E0101A46FA19ABAA075
:1003B80018D0910E01010101A45D050E0101A55996
:1003C800D8A00AD0016E000E00010001E56F0150AF
:1003D8008B928B90898A04D001010101A44BA52B33
:1003E800BA90BAA41FD06D0E00010001835D020E01
:1003F80000018459D8A00AD0016E000E0001000146
:10040800896F0150919491908A8A0BD0290E00012E
:100418000001835D000E0001845900010001834B37
:10042800842BBA940FC0F5FF0EC0F8FF0DC0F7FF7C
:100438000CC0F6FF0BC0F4FF0AC0F3FF09C0DAFFD7
:1004480008C0D9FF07C0E2FF06C0E1FF05C0EAFF08
:1004580004C0E9FF03C0FBFF02C0FAFF11004CEF24
:1004680042F0110E0DEC43F000010001A76F0101ED
:10047800DE6F000E000100019F6F0101DE51000ECA
:1004880001010101696F000E0101686F0101DE6F52
:10049800000E000100019A6F0101DE518B908B92D2
:1004A800898A899C899E9188919091948A8A010170
:1004B800DE6F000E00010001896F0101DE510101AC
:1004C800DE6F000E00010001E56F0101DE51010140
:1004D800DE6F0D0E00010001FC6F0101DE51010EFF
:1004E8007AEC42F0000100019B05D8A405D0CBECC2
:1004F80042F0FDEC41F004D0000E496E2B0E486E20
:10050800000E496E130E486E0F010F0103850F018F
:100518000F0139850101DE6F010E000100019B6F9B
:100528000101DE51150E0DEC43F000010001AE6F24
:100538000101DE6F000E00010001E76F0101DE51CD
:100548000101DE6F000E00010001AF6F0101DE51F5
:100558000101DE6F0D0E126E0101DE510101DF6F28
:10056800200E136E0101DF51DE0EA6EC42F00101F0
:10057800DE6F0D0E126E0101DE510101DF6F100EEC
:10058800136E0101DF51DE0EA6EC42F00E01F5A953
:10059800FDD766926C9276867C8679947C8C6A8C80
:1005A800768C708C66807B927D8A00010001B06732
:1005B80003D0698E789007D000010001B005D8A457
:1005C80002D0699E78804C6603D06C80729005D00A
:1005D8004C04D8A402D06C9072800101DE6F020E28
:1005E800156E0101DE510101DF6F010E166E01016A
:1005F800DF51DE0E8FEC40F015C046F016C047F014
:1006080046C050F050500F0B4D6E100E5016503A19
:100618000F0E501650500A0DF3504D244D6E46AA39
:1006280004D00101DE6F010E03D00101DE6F000E60
:100638004A6E0101DE510101DE6F010E156E0101E6
:10064800DE510101DF6F010E166E0101DF51DE0E72
:100658008FEC40F015C046F016C047F046500F0B1F
:100668004F6E463A473A0F0E46164750F00B461261
:100678000F0E471646C04EF0070E4E164DC010F02E
:100688004EC011F04FC012F04A50B9EC38F04FC0CC
:10069800BCF00101DE6F010E156E0101DE51010192
:1006A800DF6F010E166E0101DF51DE0E8FEC40F098
:1006B80015C046F016C047F046500F0B4F6E463A2D
:1006C800473A0F0E46164750F00B46120F0E4716C4
:1006D80046C04EF0070E4E1600010001BC514F18DF
:1006E800D8B441D00101DE6F010E00010001AB6FEB
:1006F8000101DE514FC0BCF00101DE6F020E156E24
:100708000101DE510101DF6F010E166E0101DF519B
:10071800DE0E8FEC40F015C046F016C047F046C01C
:1007280050F050500F0B4D6E100E5016503A0F0EE1
:10073800501650500A0DF3504D244D6E46AA04D061
:100748000101DE6F010E03D00101DE6F000E4A6E5B
:100758000101DE514DC010F04EC011F04FC012F033
:100768004A50B9EC38F081A888BC56D080B854D02B
:10077800000E436E000E426E3AD0030E425C000E2D
:100788004358D8A034D00E01F5A9FDD76C926692D3
:10079800669076867C867984768C6C907290789058
:1007A800699E6F9E66966C9676927C9266946C941F
:1007B800729478940F010F0103950F010F01399579
:1007C8009188899C899E8B908B92898A8A8A91903C
:1007D80091940101DE6F010E000100019A6F010181
:1007E800DE51F5EC40F0000E496E1C0E486E88ACE8
:1007F800C4D780A8FED781A8FED7030E425C000E9E
:100808004358D8B009D0899A91988A9A0F010F0154
:1008180003850F010F0139850101DE6F0D0E156E7D
:100828000101DE510101DF6F010E166E0101DF517A
:10083800DE0E8FEC40F015C046F016C047F00101FF
:10084800DE6F140E156E0101DE510101DF6F010E1E
:10085800166E0101DF51DE0E8FEC40F015C07FF0FF
:1008680016C080F046B613D0000100017FA70FD054
:100878000101DE6F140E126E0101DE510101DF6FFE
:10088800100E136E0101DF51DE0EA6EC42F046A6F3
:1008980013D0000100017FB70FD00101DE6F0D0EEC
:1008A800126E0101DE510101DF6F200E136E01018E
:1008B800DF51DE0EA6EC42F046A6ADD000010001E5
:1008C8007FA7A9D00101DE6F0D0E126E0101DE5166
:1008D8000101DF6F200E136E0101DF51DE0EA6EC61
:1008E80042F00101DE6F140E126E0101DE510101AA
:1008F800DF6F100E136E0101DF51DE0EA6EC42F021
:100908000101DE6F070E126E0101DE510101DF6F7A
:10091800800E136E0101DF51DE0EA6EC42F00001DD
:100928000001A705D8A46AD0000100019F05D8A43A
:1009380065D00101DE6F120E126E0101DE51000159
:100948000001E0510101DF6FE06B060E0101DF27B6
:10095800000EE0230001600E0101DF25D96E0001C1
:10096800000E0101E021DA6EDF50136EDE0EA6ECF8
:1009780042F00101DE6F000E000100019F6F0101CE
:10098800DE510101DE6F130E126E0101DE5101010D
:10099800DF6F000E136E0101DF51DE0EA6EC42F090
:1009A8000101DE6F140E126E0101DE510101DF6FCD
:1009B800100E136E0101DF51DE0EA6EC42F00101AC
:1009C800DE6F0D0E126E0101DE510101DF6F200E88
:1009D800136E0101DF51DE0EA6EC42F00101DE6F5D
:1009E800070E126E0101DE510101DF6F300E136E2A
:1009F8000101DF51DE0EA6EC42F00DD0000100012E
:100A0800AE6709D048501C0A4910D8B404D0000E6B
:100A1800496E0D0E486E4850120A4910D8A408D0E5
:100A2800000E00010001826F2A0E0001816F120082
:100A380048501D0A4910D8A482D00101DE6F010E6A
:100A480000010001A26F0101DE51899A91988A9AEA
:100A58000F010F0103950F010F0139950E01F5A93B
:100A6800FDD74BA001D07C8C4BB001D07C9C4BA017
:100A780001D06A8C4BB001D06A9C4BA001D0768C17
:100A88004BB001D0769C4BA001D0708C4BB001D0FC
:100A9800709C4BB002D08B9001D08B804BB002D0B1
:100AA800899C01D0898C4BB002D0919001D0918063
:100AB80080A805D0000100018905D8A4EAD533EC47
:100AC80042F080A8FED70101DE6F000E0001000190
:100AD800A26F0101DE5191888B90899C91900E0143
:100AE800F5A9FDD766926C9276867C867994768C89
:100AF800708C66807B927D8A00010001B06703D00C
:100B0800698E789007D000010001B005D8A402D002
:100B1800699E78804C6603D06C80729005D04C0436
:100B2800D8A402D06C9072800F010F0103850F01C9
:100B38000F013985000E496E0B0E7AEF12F04850FE
:100B48001E0A4910D8A475D091980101DE6F010ED4
:100B580000010001A26F0101DE510F010F01039591
:100B68000F010F0139954BB002D08B9001D08B80CB
:100B78004BB002D0899C01D0898C4BB002D09190A7
:100B880001D091800E01F5A9FDD74BA001D0768642
:100B98004BB001D076964BA001D07C864BB001D0EB
:100BA8007C964BA001D079844BB001D0799481B860
:100BB80070D533EC42F081A8FED70101DE6F000E3C
:100BC80000010001A26F0101DE5191888B90899C80
:100BD8009190000E496E230E486E0F010F01038598
:100BE8000F010F0139850E01F5A9FDD766926C92A8
:100BF80076867C867994768C708C66807B927D8AEA
:100C080000010001B06703D0698E789007D0000119
:100C18000001B005D8A402D0699E78804C6603D044
:100C28006C80729036D54C04D8A433D56C90728001
:100C380030D54850130A4910D8A464EF0AF00101CE
:100C4800DE6F010E156E0101DE510101DF6F010E2D
:100C5800166E0101DF51DE0E8FEC40F015C046F034
:100C680016C047F046C050F05050700B000100010C
:100C7800C36F0F0E5016505000010001C3274A04DD
:100C8800D8A40ED04D500C0AD8A404D00101DE6FB0
:100C98000C0E0DD04D500C0F00010001A56F0FD0A8
:100CA8004D500C0AD8A409D00101DE6F000E0001D6
:100CB8000001A56F0101DE5102D04DC0A5F0010170
:100CC800DE6F000E00010001976F0101DE51010186
:100CD800DE6F000E00010001E06F0101DE5100012E
:100CE8000001E051010D0001600EF324D96E0001EE
:100CF800000EF420DA6EDF5000010001A55DD8A0D7
:100D080030D000010001E051010D0001600EF32414
:100D1800D96E0001000EF420DA6E00010001A55121
:100D2800DF622BD000010001E0510101DE6FDF6BB3
:100D3800060E0101DE27000EDF230001600E01010F
:100D4800DE25D96E0001000E0101DF21DA6EDF50C9
:100D58000101E06F00010001C3510101E05DD8A06D
:100D68000CD00101DE6F010E00010001976F010137
:100D7800DE510101DE6F000EDFD100010001E051FC
:100D88000101DE6FDF6B010E0101DE27000EDF239C
:100D98000001600E0101DE25D96E0001000E01017F
:100DA800DF21DA6EDF5000010001A55DD8A039D03F
:100DB80000010001E0510101DE6FDF6B010E01014E
:100DC800DE27000EDF230001600E0101DE25D96E4B
:100DD8000001000E0101DF21DA6E00010001A551BA
:100DE800DF622BD000010001E0510101DE6FDF6BF3
:100DF800070E0101DE27000EDF230001600E01014E
:100E0800DE25D96E0001000E0101DF21DA6EDF5008
:100E18000101E06F00010001C3510101E05DD8A0AC
:100E28000CD00101DE6F010E00010001976F010176
:100E3800DE510101DE6F010E7FD100010001E0519A
:100E48000101DE6FDF6B020E0101DE27000EDF23DA
:100E58000001600E0101DE25D96E0001000E0101BE
:100E6800DF21DA6EDF5000010001A55DD8A039D07E
:100E780000010001E0510101DE6FDF6B020E01018C
:100E8800DE27000EDF230001600E0101DE25D96E8A
:100E98000001000E0101DF21DA6E00010001A551F9
:100EA800DF622BD000010001E0510101DE6FDF6B32
:100EB800080E0101DE27000EDF230001600E01018C
:100EC800DE25D96E0001000E0101DF21DA6EDF5048
:100ED8000101E06F00010001C3510101E05DD8A0EC
:100EE8000CD00101DE6F010E00010001976F0101B6
:100EF800DE510101DE6F020E1FD100010001E05139
:100F08000101DE6FDF6B030E0101DE27000EDF2318
:100F18000001600E0101DE25D96E0001000E0101FD
:100F2800DF21DA6EDF5000010001A55DD8A039D0BD
:100F380000010001E0510101DE6FDF6B030E0101CA
:100F4800DE27000EDF230001600E0101DE25D96EC9
:100F58000001000E0101DF21DA6E00010001A55138
:100F6800DF622BD000010001E0510101DE6FDF6B71
:100F7800090E0101DE27000EDF230001600E0101CA
:100F8800DE25D96E0001000E0101DF21DA6EDF5087
:100F98000101E06F00010001C3510101E05DD8A02B
:100FA8000CD00101DE6F010E00010001976F0101F5
:100FB800DE510101DE6F030EBFD000010001E051D8
:100FC8000101DE6FDF6B040E0101DE27000EDF2357
:100FD8000001600E0101DE25D96E0001000E01013D
:100FE800DF21DA6EDF5000010001A55DD8A039D0FD
:100FF80000010001E0510101DE6FDF6B040E010109
:10100800DE27000EDF230001600E0101DE25D96E08
:101018000001000E0101DF21DA6E00010001A55177
:10102800DF622BD000010001E0510101DE6FDF6BB0
:101038000A0E0101DE27000EDF230001600E010108
:10104800DE25D96E0001000E0101DF21DA6EDF50C6
:101058000101E06F00010001C3510101E05DD8A06A
:101068000CD00101DE6F010E00010001976F010134
:10107800DE510101DE6F040E5FD000010001E05176
:101088000101DE6FDF6B050E0101DE27000EDF2395
:101098000001600E0101DE25D96E0001000E01017C
:1010A800DF21DA6EDF5000010001A55DD8A039D03C
:1010B80000010001E0510101DE6FDF6B050E010147
:1010C800DE27000EDF230001600E0101DE25D96E48
:1010D8000001000E0101DF21DA6E00010001A551B7
:1010E800DF622FD000010001E0510101DE6FDF6BEC
:1010F8000B0E0101DE27000EDF230001600E010147
:10110800DE25D96E0001000E0101DF21DA6EDF5005
:101118000101E06F00010001C3510101E05DD8A0A9
:1011280010D00101DE6F010E00010001976F01016F
:10113800DE510101DE6F050E00010001E06F0101C3
:10114800DE510001000197675BD025D00001000146
:10115800E051010D0001600EF324D96E0001000E6C
:10116800F420DA6EDF500101DE6F00010001DC516E
:101178000101DE5DD8B01FD000010001E051010D72
:101188000001600EF324D96E0001000EF420DA6E1F
:10119800DF50D8B410D000010001E051010D00016A
:1011A800600EF324D96E0001000EF420DA6EDF50D1
:1011B80000010001DC6F00010001E02B050E0001B9
:1011C8000001E065C3D70101DE6F000E00010001D8
:1011D800E06F0101DE5103D000010001E02B0001A6
:1011E8000001E051010D0001600EF324D96E0001E9
:1011F800000EF420DA6E00010001DC51DF62ECD74A
:1012080000010001E051010D0001600EF324D96EC8
:101218000001000EF420DA6EDF50000100018F6F2C
:101228000C0E000100018F6515D000010001E0518E
:10123800010D0001600EF324D96E0001000EF420A8
:10124800DA6EDF5000010001AD6F00010001AD5101
:10125800F40F0DD000010001E051010D0001600EF6
:10126800F324D96E0001000EF420DA6EDF5000017D
:101278000001AD6F0001ADC010F0116A000E136ED1
:101288000A0E126E22EC3FF01038F00B000100013C
:101298009D6F0001ADC010F0116A000E136E0A0EAA
:1012A800126ECEEC3FF01050000100019D250001A8
:1012B80000019D6F00010001E051010D0001600E69
:1012C800F324D96E0001000EF420DA6E0B0EDF64F1
:1012D80014D000010001E051010D0001600EF3245B
:1012E800D96E0001000EF420DA6E180EDF6201D00C
:1012F80004D0000100019D8B03D0000100019D9BDB
:10130800000100019D8D0101DE6F0A0E126E0101C0
:10131800DE510101DF6F000E136E0101DF51DE0E99
:10132800A6EC42F00101DE6F0B0E126E0101DE51D8
:101338000101DF6F000E136E0101DF51DE0EA6EC16
:1013480042F00101DE6F0C0E126E0101DE519DC0EC
:1013580013F0DE0EA6EC42F00101DE6F110E126EE4
:101368000101DE510101DF6F000E136E0101DF5133
:10137800DE0EA6EC42F00101DE6F120E126E0101C4
:10138800DE5100010001E0510101DF6FE06B060E44
:101398000101DF27000EE0230001600E0101DF25B7
:1013A800D96E0001000E0101E021DA6EDF50136EE4
:1013B800DE0EA6EC42F00101DE6F130E126E010183
:1013C800DE510101DF6F000E136E0101DF51DE0EE9
:1013D800A6EC42F00101DE6F140E126E0101DE511F
:1013E8000101DF6F100E136E0101DF51DE0EA6EC56
:1013F80042F00101DE6F0D0E126E0101DE51010196
:10140800DF6F200E136E0101DF51DE0EA6EC42F0F5
:101418000101DE6F070E126E0101DE510101DF6F5F
:10142800300E136E0101DF51DE0EA6EC42F0000E05
:10143800496E0B0E486E6CC0F3F06DC0F4F06EC0D0
:10144800F5F0CFEC3AF0F3C0DEF1F4C0DFF1F5C00F
:10145800E0F1F6C0E1F1DEC1DAF1DFC1DBF1000E47
:1014680001010101DD6F050E0101DC6FC4EC40F0E4
:101478000101DAC182F10101DBC183F10001000140
:10148800E051050AD8B49CEF14F000010001E051C6
:101498000101DE6FDF6B010E0101DE27000EDF2385
:1014A8000001600E0101DE25D96E0001000E010168
:1014B800DF21DA6EDF50D8A4A3EF14F09CEF14F00C
:1014C80048500E0A4910D8A405D0000E496E140ED3
:1014D8007AEF12F04850140A4910D8A437D0000106
:1014E8000001E505D8A416D08B928B80899A000E4E
:1014F800496E0B0E486E0E01F5A9FDD700010001DB
:101508008905D8A403D0918491908A9A66826C82C6
:101518004DEF03F00001000189670BD0000E496E02
:101528000B0E486E0E01F5A9FDD766926C924DEF31
:1015380003F00E01F5A9FDD766826C929184919013
:101548008A9A000E496E0F0E7AEF12F048500F0A71
:101558004910D8A4F4D081A202D081A419D033ECC8
:1015680043F00101DE6F000E00010001906F0101E0
:10157800DE5109D0EA0E116E600E106E18EC43F0C1
:1015880000010001902B010E000100019065F2D7C7
:10159800000E456E000E446E96D055EC41F010C01A
:1015A80071F011C072F0EF0E00010001715D020EC2
:1015B80000017259D8B074D079D02BEC43F0EA0E00
:1015C800116E600E106E18EC43F0EA0E116E600E8C
:1015D800106E18EC43F0EA0E116E600E106E18ECE7
:1015E80043F0EA0E116E600E106E18EC43F02FEC0B
:1015F80043F0EA0E116E600E106E18EC43F0EA0E1E
:10160800116E600E106E18EC43F0EA0E116E600E4B
:10161800106E18EC43F02BEC43F0EA0E116E600EDE
:10162800106E18EC43F0EA0E116E600E106E18EC96
:1016380043F0EA0E116E600E106E18EC43F0EA0EDD
:10164800116E600E106E18EC43F033EC43F0EA0EA6
:10165800116E600E106E18EC43F0EA0E116E600EFB
:10166800106E18EC43F0EA0E116E600E106E18EC56
:1016780043F0EA0E116E600E106E18EC43F055EC54
:1016880041F010C071F011C072F0444A452AEE0EC4
:1016980000010001715D020E00017259D8A006D048
:1016A800030E445C000E4558D8A087D7030E445C4F
:1016B800000E4558D8B00AD0000E00010001846F12
:1016C800000E0001836F81B281B467D72BEC43F021
:1016D8000E01F5A9FDD77C8C6A9C030E445C000EB4
:1016E8004558D8A022D0B9EC42F001EC43F00E01E5
:1016F800F5A9FDD77B9E759E76967C9679947D9A02
:101708006C92669266906C9072907890699E6F9ECB
:1017180066966C9676927C9266946C9472947894A1
:10172800000E496E1D0E7AEF12F0000100019A05B5
:10173800D8B4D9D0000E496E0E0E7AEF12F0485088
:101748000B0A4910D8A4D4D081A219D02FEC43F0A9
:101758000101DE6F000E00010001906F0101DE51F2
:1017680009D0EA0E116E600E106E18EC43F00001FD
:101778000001902B010E000100019065F2D7000EC8
:10178800456E000E446E000E00010001726F000EDF
:101798000001716F81D055EC41F010C071F011C09B
:1017A80072F0EF0E00010001715D020E0001725926
:1017B800D8B05CD071D02BEC43F0EA0E116E600EFD
:1017C800106E18EC43F0EA0E116E600E106E18ECF5
:1017D80043F0EA0E116E600E106E18EC43F033EC15
:1017E80043F0EA0E116E600E106E18EC43F0EA0E2C
:1017F800116E600E106E18EC43F0EA0E116E600E5A
:10180800106E18EC43F02BEC43F0EA0E116E600EEC
:10181800106E18EC43F0EA0E116E600E106E18ECA4
:1018280043F0EA0E116E600E106E18EC43F02FECC8
:1018380043F0EA0E116E600E106E18EC43F0EA0EDB
:10184800116E600E106E18EC43F055EC41F010C0AC
:1018580071F011C072F0444A452AEE0E00010001F1
:10186800715D020E00017259D8A00BD0030E445CC2
:10187800000E4558D8A09FD700010001E505D8B44F
:101888009AD7030E445C000E4558D8A005D0000135
:101898000001E56701D003D081A281A47CD72BEC9D
:1018A80043F00E01F5A9FDD77C9C6A8C030E445CBD
:1018B800000E4558D8B081A211D0B9EC42F001EC25
:1018C80043F00E01F5A9FDD77D9A6C926692669059
:1018D8007B9E759E76967C96799415D700010001BB
:1018E8009A05D8A427D7000E496E1C0E7AEF12F07D
:1018F80048502B0A4910D8A49FD181A202D081A4B4
:1019080019D033EC43F00101DE6F000E0001000135
:10191800906F0101DE5109D0EA0E116E600E106E53
:1019280018EC43F000010001902B010E00010001AA
:101938009065F2D7000E456E000E446E96D055ECB9
:1019480041F010C071F011C072F0EF0E00010001FB
:10195800715D020E00017259D8B074D07FD02BECA3
:1019680043F0EA0E116E600E106E18EC43F0EA0EAA
:10197800116E600E106E18EC43F0EA0E116E600ED8
:10198800106E18EC43F0EA0E116E600E106E18EC33
:1019980043F02FEC43F0EA0E116E600E106E18EC57
:1019A80043F0EA0E116E600E106E18EC43F0EA0E6A
:1019B800116E600E106E18EC43F02BEC43F0EA0E3B
:1019C800116E600E106E18EC43F0EA0E116E600E88
:1019D800106E18EC43F0EA0E116E600E106E18ECE3
:1019E80043F0EA0E116E600E106E18EC43F033EC03
:1019F80043F0EA0E116E600E106E18EC43F0EA0E1A
:101A0800116E600E106E18EC43F0EA0E116E600E47
:101A1800106E18EC43F0EA0E116E600E106E18ECA2
:101A280043F055EC41F010C071F011C072F0444A17
:101A3800452AEE0E00010001715D020E0001725987
:101A4800D8A006D0030E445C000E4558D8A087D70E
:101A5800030E445C000E4558D8B00AD0000E0001B1
:101A68000001846F000E0001836F81B281B467D7D3
:101A78002BEC43F00E01F5A9FDD77C8C6A9C030E74
:101A8800445C000E4558D8A021D0B9EC42F001ECD6
:101A980043F00E01F5A9FDD77B9E759E76967C9640
:101AA80079947D9A6C92669266906C907290789018
:101AB800699E6F9E66966C9676927C9266946C94FC
:101AC80072947894000E496E1D0E486E81A219D04A
:101AD8002FEC43F00101DE6F000E00010001906F52
:101AE8000101DE5109D0EA0E116E600E106E18EC7D
:101AF80043F000010001902B010E000100019065E8
:101B0800F2D7000E456E000E446E73D055EC41F0CE
:101B180010C071F011C072F0EF0E00010001715D8C
:101B2800020E00017259D8B058D063D02BEC43F0A4
:101B3800EA0E116E600E106E18EC43F0EA0E116E8C
:101B4800600E106E18EC43F0EA0E116E600E106E07
:101B580018EC43F0EA0E116E600E106E18EC43F0AC
:101B680033EC43F0EA0E116E600E106E18EC43F081
:101B7800EA0E116E600E106E18EC43F0EA0E116E4C
:101B8800600E106E18EC43F02BEC43F0EA0E116E69
:101B9800600E106E18EC43F0EA0E116E600E106EB7
:101BA80018EC43F0EA0E116E600E106E18EC43F05C
:101BB8002FEC43F033EC42F055EC41F010C071F0DB
:101BC80011C072F0444A452AEE0E00010001715D11
:101BD800020E00017259D8A006D0030E445C000E14
:101BE8004558D8A0A3D7030E445C000E4558D8B07A
:101BF80003D081A281A48AD72BEC43F00E01F5A96A
:101C0800FDD77C9C6A8C030E445C000E4558D8A016
:101C18000ED0B9EC42F001EC43F00E01F5A9FDD766
:101C28007B9E759E7D9A6C926692669053D6000E46
:101C3800496E130E7AEF12F048501B0A4910D8B4B7
:101C48004DEF03F048501C0A4910D8A4B9D280B807
:101C5800C1D0EA0E116E600E106E18EC43F0EA0E59
:101C6800116E600E106E18EC43F080A881A80ED09B
:101C780088AC0CD080A8FED781B404D0000E496E81
:101C88000B0EA7D0000E496E0F0EA3D080A881B806
:101C9800A1D088BC9FD0000E436E000E426E8AD041
:101CA800030E425C000E4358D8A084D00E01F5A95B
:101CB800FDD776967C9679947C9C6A9C769C0101EB
:101CC800DE6F020E156E0101DE510101DF6F010E9C
:101CD800166E0101DF51DE0E8FEC40F015C046F0A4
:101CE80016C047F046C050F050500F0B4D6E100E06
:101CF8005016503A0F0E501650500A0DF3504D24FE
:101D08004D6E46AA04D00101DE6F010E03D0010119
:101D1800DE6F000E4A6E0101DE510101DE6F010E19
:101D2800156E0101DE510101DF6F010E166E010112
:101D3800DF51DE0E8FEC40F015C046F016C047F0BC
:101D480046500F0B4F6E463A473A0F0E461647500D
:101D5800F00B46120F0E471646C04EF0070E4E16F1
:101D68004DC010F04EC011F04FC012F04A50B9ECFF
:101D780038F04B04D8A40CD04DC010F04EC011F070
:101D88004FC012F04A50B9EC38F0899A8A9A04D0B8
:101D9800898A8A8A01EC43F0000E496E120E486E59
:101DA800F5EC40F00101DE6F000E000100019A6FB2
:101DB8000101DE5188AC74D780A8FED781A8FED770
:101DC800030E425C000E4358D8B004D0000E496E92
:101DD8001C0E486E81B8CFD0EA0E116E600E106EE0
:101DE80018EC43F0EA0E116E600E106E18EC43F01A
:101DF80080B881B81CD088AC1AD081A8FED748C05A
:101E0800A2F149C0A3F100010001AF2900010001BE
:101E1800AF6F00010001AF511CEC40F00E01F5A9B5
:101E2800FDD77B9E759E000E496E230EA3D080A819
:101E380081B8A1D088BC9FD0000E436E000E426EC0
:101E48008AD0030E425C000E4358D8A084D00E01FD
:101E5800F5A9FDD776967C9679947C9C6A9C769CAD
:101E68000101DE6F020E156E0101DE510101DF6F07
:101E7800010E166E0101DF51DE0E8FEC40F015C029
:101E880046F016C047F046C050F050500F0B4D6E4C
:101E9800100E5016503A0F0E501650500A0DF350AF
:101EA8004D244D6E46AA04D00101DE6F010E03D009
:101EB8000101DE6F000E4A6E0101DE510101DE6F85
:101EC800010E156E0101DE510101DF6F010E166E64
:101ED8000101DF51DE0E8FEC40F015C046F016C050
:101EE80047F046500F0B4F6E463A473A0F0E4616CC
:101EF8004750F00B46120F0E471646C04EF0070E1D
:101F08004E164DC010F04EC011F04FC012F04A509E
:101F1800B9EC38F04B04D8A40CD04DC010F04EC02A
:101F280011F04FC012F04A50B9EC38F0899A8A9AE9
:101F380004D0898A8A8A01EC43F00101DE6F000E21
:101F4800000100019A6F0101DE51F5EC40F0000E2E
:101F5800496E120E486E88AC74D780A8FED781A847
:101F6800FED7030E425C000E4358D8B004D0000ED2
:101F7800496E1C0E486E88BC4DEF03F0EA0E116ED8
:101F8800600E106E18EC43F0EA0E116E600E106EC3
:101F980018EC43F080B881A86ED088BC6CD088ACAF
:101FA800FED70E01F5A9FDD766926C9276867C86DF
:101FB8007994768C708C66807B927D8A0001000112
:101FC800B06703D0698E789007D000010001B00592
:101FD800D8A402D0699E78804C6603D06C80729039
:101FE80005D04C04D8A402D06C9072800101DE6F39
:101FF800000E000100019A6F0101DE51000E496ECA
:102008000E0E486E0101DE6F020E00010001BC6F6A
:102018000101DE510101DE6F000E00010001E56FD4
:102028000101DE51000E01010101A56F000E010141
:10203800A46F0101DE6F000E00010001896F01012C
:10204800DE51000E00010001846F000E0001836F55
:102058000101DE6F010E4F6E0101DE51898A918800
:102068008A8A0F010F0103850F010F013985F5ECED
:1020780040F04DEF03F080A881B84DEF03F088BC25
:102088004DEF03F0000E436E000E426E8AD0030E31
:10209800425C000E4358D8A084D00E01F5A9FDD7A4
:1020A80076967C9679947C9C6A9C769C0101DE6F7E
:1020B800020E156E0101DE510101DF6F010E166E71
:1020C8000101DF51DE0E8FEC40F015C046F016C05E
:1020D80047F046C050F050500F0B4D6E100E501682
:1020E800503A0F0E501650500A0DF3504D244D6EB5
:1020F80046AA04D00101DE6F010E03D00101DE6F94
:10210800000E4A6E0101DE510101DE6F010E156EEF
:102118000101DE510101DF6F010E166E0101DF5171
:10212800DE0E8FEC40F015C046F016C047F0465062
:102138000F0B4F6E463A473A0F0E46164750F00BB4
:1021480046120F0E471646C04EF0070E4E164DC0EB
:1021580010F04EC011F04FC012F04A50B9EC38F0F0
:102168004B04D8A40CD04DC010F04EC011F04FC095
:1021780012F04A50B9EC38F0899A8A9A04D0898AC0
:102188008A8A01EC43F00101DE6F000E00010001B4
:102198009A6F0101DE51F5EC40F0000E496E120E07
:1021A800486E88AC74D780A8FED781A8FED7030EE6
:1021B800425C000E4358D8B04DEF03F077EF0CF0B7
:1021C8004850240A4910D8A41DD04BEC43F0000E07
:1021D800436E000E426E425001010101B05D435052
:1021E80001010101B159D8B04DEF03F0000E496E5D
:1021F8000F0E486E0101DE6F000E00010001A06F96
:1022080018EF16F048500D0A4910D8A43AD0000E1D
:10221800436E000E426E3BEC43F0000E496E110E09
:10222800486E000E456E000E446E000E000100015F
:102238007A6F000E0001796F26EC41F010C084F12E
:1022480011C085F1EA0E116E600E106E18EC43F0A5
:10225800EA0E116E600E106E18EC43F0EA0E116E65
:10226800600E106E18EC43F0EA0E116E600E106EE0
:1022780018EC43F00E01F5A9FDD77C9679844DEF53
:1022880003F04850110A4910D8A433D12C0E00018C
:102298000001795D010E00017A59D8A013D00E0112
:1022A800F5A9FDD77C767974000E000100017A6FDC
:1022B800000E0001796F26EC41F010C084F111C0C6
:1022C80085F104D000010001794B7A2B26EC41F00E
:1022D80010C084F111C085F1425001010101825DF5
:1022E8004350010101018359D8B004D0000E496E52
:1022F800100EFCD055EC41F010C071F011C072F016
:10230800EF0E00010001715D020E00017259D8B094
:102318008FD04DEF03F027EC43F0EA0E116E600EFC
:10232800106E18EC43F0EA0E116E600E106E18EC89
:1023380043F0EA0E116E600E106E18EC43F0EA0ED0
:10234800116E600E106E18EC43F0EA0E116E600EFE
:10235800106E18EC43F0EA0E116E600E106E18EC59
:1023680043F0EA0E116E600E106E18EC43F0EA0EA0
:10237800116E600E106E18EC43F037EC43F0EA0E65
:10238800116E600E106E18EC43F0EA0E116E600EBE
:10239800106E18EC43F0EA0E116E600E106E18EC19
:1023A80043F0EA0E116E600E106E18EC43F0EA0E60
:1023B800116E600E106E18EC43F0EA0E116E600E8E
:1023C800106E18EC43F0EA0E116E600E106E18ECE9
:1023D80043F027EC43F0EA0E116E600E106E18EC15
:1023E80043F0EA0E116E600E106E18EC43F0EA0E20
:1023F800116E600E106E18EC43F0EA0E116E600E4E
:10240800106E18EC43F03BEC43F033EC42F055EC23
:1024180041F010C071F011C072F0444A452AEE0E26
:1024280000010001715D020E00017259D8A006D0AA
:10243800030E445C000E4558D8A06DD7030E445CCB
:10244800000E4558D8A04DEF03F027EC43F0EA0EF4
:10245800116E600E106E18EC43F0EA0E116E600EED
:10246800106E18EC43F0EA0E116E600E106E18EC48
:1024780043F0EA0E116E600E106E18EC43F037EC64
:1024880043F0EA0E116E600E106E18EC43F0EA0E7F
:10249800116E600E106E18EC43F0EA0E116E600EAD
:1024A800106E18EC43F027EC43F0EA0E116E600E44
:1024B800106E18EC43F0EA0E116E600E106E18ECF8
:1024C80043F0EA0E116E600E106E18EC43F0EA0E3F
:1024D800116E600E106E18EC43F0B9EC42F001EC8E
:1024E80043F00E01F5A9FDD72AEF17F0486E4DEF1E
:1024F80003F04850100A4910D8A426D227EC43F01C
:10250800EA0E116E600E106E18EC43F0EA0E116EB2
:10251800600E106E18EC43F0EA0E116E600E106E2D
:1025280018EC43F0EA0E116E600E106E18EC43F0D2
:1025380037EC43F0EA0E116E600E106E18EC43F0A3
:10254800EA0E116E600E106E18EC43F0EA0E116E72
:10255800600E106E18EC43F0EA0E116E600E106EED
:1025680018EC43F0EA0E116E600E106E18EC43F092
:10257800EA0E116E600E106E18EC43F0EA0E116E42
:10258800600E106E18EC43F0EA0E116E600E106EBD
:1025980018EC43F0EA0E116E600E106E18EC43F062
:1025A800EA0E116E600E106E18EC43F0EA0E116E12
:1025B800600E106E18EC43F0EA0E116E600E106E8D
:1025C80018EC43F0EA0E116E600E106E18EC43F032
:1025D800EA0E116E600E106E18EC43F0EA0E116EE2
:1025E800600E106E18EC43F0EA0E116E600E106E5D
:1025F80018EC43F0EA0E116E600E106E18EC43F002
:10260800EA0E116E600E106E18EC43F0EA0E116EB1
:10261800600E106E18EC43F0EA0E116E600E106E2C
:1026280018EC43F027EC43F00E01F5A9FDD77C9692
:10263800799400010001E051010D0001600EF324BE
:10264800D96E0001000EF420DA6EDF50000100019F
:102658008F6F0C0E000100018F6515D0000100017D
:10266800E051010D0001600EF324D96E0001000E47
:10267800F420DA6EDF5000010001AD6F00010001A7
:10268800AD51F40F0DD000010001E051010D000122
:10269800600EF324D96E0001000EF420DA6EDF50CC
:1026A80000010001AD6F0001ADC010F0116A000E0D
:1026B800136E0A0E126E22EC3FF01038F00B000178
:1026C80000019D6F0001ADC010F0116A000E136E7D
:1026D8000A0E126ECEEC3FF01050000100019D254D
:1026E800000100019D6F00010001E051010D000192
:1026F800600EF324D96E0001000EF420DA6E0B0E82
:10270800DF6414D000010001E051010D0001600EEA
:10271800F324D96E0001000EF420DA6E180EDF6281
:1027280001D004D0000100019D8B03D000010001FD
:102738009D9B000100019D8D0101DE6F0A0E126E46
:102748000101DE510101DF6F000E136E0101DF513F
:10275800DE0EA6EC42F00101DE6F0B0E126E0101D7
:10276800DE510101DF6F000E136E0101DF51DE0E35
:10277800A6EC42F00101DE6F0C0E126E0101DE5173
:102788009DC013F0DE0EA6EC42F00101DE6F110EC3
:10279800126E0101DE510101DF6F000E136E01019F
:1027A800DF51DE0EA6EC42F000010001A705D8A417
:1027B8002DD00101DE6F010E000100019F6F0101A4
:1027C800DE510101DE6F120E126E0101DE510001B1
:1027D8000001E0510101DF6FE06B060E0101DF2708
:1027E800000EE0230001600E0101DF25D96E000113
:1027F800000E0101E021DA6EDF500101E16F0101F5
:10280800E129136EDE0EA6EC42F020D00101DE6F46
:10281800120E126E0101DE5100010001E0510101AA
:10282800DF6FE06B060E0101DF27000EE0230001D9
:10283800600E0101DF25D96E0001000E0101E021C3
:10284800DA6EDF50136EDE0EA6EC42F00101DE6F89
:10285800130E126E0101DE510101DF6F000E136EBF
:102868000101DF51DE0EA6EC42F00101DE6F140E0D
:10287800126E0101DE510101DF6F100E136E0101AE
:10288800DF51DE0EA6EC42F00101DE6F0D0E126E76
:102898000101DE510101DF6F200E136E0101DF51CE
:1028A800DE0EA6EC42F00101DE6F070E126E01018A
:1028B800DE510101DF6F300E136E0101DF51DE0EB4
:1028C800A6EC42F0000E496E0E0E486E0101DE6F56
:1028D800000E00010001A06F0101DE516CC0F3F091
:1028E8006DC0F4F06EC0F5F0CFEC3AF0F3C0DEF155
:1028F800F4C0DFF1F5C0E0F1F6C0E1F1DEC1DAF1D4
:10290800DFC1DBF1000E01010101DD6F050E0101E0
:10291800DC6FC4EC40F00101DAC182F10101DBC1D6
:1029280083F100010001E051050AD8A449EF0AF03B
:102938000101DE6F000E00010001E06F75D100019A
:102948000001E02B4DEF03F04850230A4910D8A4AA
:1029580057D027EC43F0EA0E116E600E106E18EC9B
:1029680043F0EA0E116E600E106E18EC43F0EA0E9A
:10297800116E600E106E18EC43F0EA0E116E600EC8
:10298800106E18EC43F0EA0E116E600E106E18EC23
:1029980043F03BEC43F0EA0E116E600E106E18EC3B
:1029A80043F0EA0E116E600E106E18EC43F0B9ECAD
:1029B80042F001EC43F00E01F5A9FDD77C9679842D
:1029C8007D9A3BEC43F0000E436E000E426E000E03
:1029D800496E220E486E00010001AF51060DF3CF7B
:1029E80077F0F4CF78F0000E456E000E446E000EBE
:1029F800000100017A6F000E0001796F4DEF03F0BE
:102A08004850220A4910D8A44DEF03F081B831D0BC
:102A180033EC42F081A8FED7070E00010001AF6534
:102A280010D00101DE6F010E00010001AF6F01013E
:102A3800DE51000E00010001786F060E0001776F6D
:102A480013D000010001AF2900010001AF6F060E8D
:102A580000010001772500010001776F000E0001D9
:102A6800000178210001786F00010001AF511CECD2
:102A780040F0100E00010001795D270E00017A591F
:102A8800D8A00DD00E01F5A9FDD77C767974000E7B
:102A9800000100017A6F000E0001796F04D0000177
:102AA8000001794B7A2B425000010001775D4350B9
:102AB800000100017859D8B0BBD027EC43F0EA0EEA
:102AC800116E600E106E18EC43F0EA0E116E600E77
:102AD800106E18EC43F0EA0E116E600E106E18ECD2
:102AE80043F0EA0E116E600E106E18EC43F037ECEE
:102AF80043F0EA0E116E600E106E18EC43F0EA0E09
:102B0800116E600E106E18EC43F0EA0E116E600E36
:102B1800106E18EC43F0EA0E116E600E106E18EC91
:102B280043F0EA0E116E600E106E18EC43F0EA0ED8
:102B3800116E600E106E18EC43F0EA0E116E600E06
:102B4800106E18EC43F0EA0E116E600E106E18EC61
:102B580043F0EA0E116E600E106E18EC43F0EA0EA8
:102B6800116E600E106E18EC43F0EA0E116E600ED6
:102B7800106E18EC43F0EA0E116E600E106E18EC31
:102B880043F0EA0E116E600E106E18EC43F0EA0E78
:102B9800116E600E106E18EC43F0EA0E116E600EA6
:102BA800106E18EC43F0EA0E116E600E106E18EC01
:102BB80043F0EA0E116E600E106E18EC43F0EA0E48
:102BC800116E600E106E18EC43F0EA0E116E600E76
:102BD800106E18EC43F0EA0E116E600E106E18ECD1
:102BE80043F027EC43F00101DE6F000E0001000105
:102BF800AF6F0101DE510E01F5A9FDD77D8A7C96E4
:102C08007994000E1CEC40F0000E496E1C0E486EC4
:102C18000101DE6F020E00010001BC6F0101DE51EF
:102C28000101DE6F010E4F6E0101DE514DEF03F021
:102C380055EC41F010C071F011C072F0EF0E0001B8
:102C48000001715D020E00017259D8B0A4D0DED621
:102C580027EC43F0EA0E116E600E106E18EC43F08C
:102C6800EA0E116E600E106E18EC43F0EA0E116E4B
:102C7800600E106E18EC43F0EA0E116E600E106EC6
:102C880018EC43F0EA0E116E600E106E18EC43F06B
:102C9800EA0E116E600E106E18EC43F0EA0E116E1B
:102CA800600E106E18EC43F0EA0E116E600E106E96
:102CB80018EC43F037EC43F0EA0E116E600E106E1C
:102CC80018EC43F0EA0E116E600E106E18EC43F02B
:102CD800EA0E116E600E106E18EC43F0EA0E116EDB
:102CE800600E106E18EC43F0EA0E116E600E106E56
:102CF80018EC43F0EA0E116E600E106E18EC43F0FB
:102D0800EA0E116E600E106E18EC43F027EC43F0DB
:102D1800EA0E116E600E106E18EC43F0EA0E116E9A
:102D2800600E106E18EC43F0EA0E116E600E106E15
:102D380018EC43F0EA0E116E600E106E18EC43F0BA
:102D48003BEC43F0EA0E116E600E106E18EC43F087
:102D5800EA0E116E600E106E18EC43F0EA0E116E5A
:102D6800600E106E18EC43F0EA0E116E600E106ED5
:102D780018EC43F055EC41F010C071F011C072F03E
:102D8800444A452AEE0E00010001715D020E000161
:102D98007259D8A006D0030E445C000E4558D8A03E
:102DA80057D7030E445C000E4558D8A02FD627EC01
:102DB80043F0EA0E116E600E106E18EC43F0EA0E46
:102DC800116E600E106E18EC43F0EA0E116E600E74
:102DD800106E18EC43F0EA0E116E600E106E18ECCF
:102DE80043F037EC43F0EA0E116E600E106E18ECEB
:102DF80043F0EA0E116E600E106E18EC43F0EA0E06
:102E0800116E600E106E18EC43F027EC43F0EA0EDA
:102E1800116E600E106E18EC43F0EA0E116E600E23
:102E2800106E18EC43F0EA0E116E600E106E18EC7E
:102E380043F0EA0E116E600E106E18EC43F0B9EC18
:102E480042F001EC43F00E01F5A9FDD77B9E759E7B
:102E580076967C9679947D9A6C92669266906C9040
:102E680072907890699E6F9E66966C9676927C9228
:102E780066946C9472947894899A91988A9A000EC0
:102E8800496E1E0E7AEF12F0000E01010101696F02
:102E9800000E0101686F0001FD6F000E00010001C6
:102EA8009A6F0001FD518B908B92898A899C899E2B
:102EB8009188919091948A8A0001FD6F010E00011A
:102EC80000019B6F0001FD51B9EC42F001EC43F0A9
:102ED8000E01F5A9FDD766926C9276967C96799448
:102EE8007C9C6A9C769C709C6C9676927C926C9486
:102EF80072947B9E759E7D9A66807B920001FD6F21
:102F0800000E106E0001FD510A0E01EC3DF00001AB
:102F18000001B06703D0698E789007D000010001E6
:102F2800B005D8A402D0699E78804C6603D06C8026
:102F3800729005D04C04D8A402D06C90728081A8FD
:102F480088BC56D080B854D0000E436E000E426E36
:102F58003AD0030E425C000E4358D8A034D00E017C
:102F6800F5A9FDD76C926692669076867C86798400
:102F7800768C6C9072907890699E6F9E66966C962F
:102F880076927C9266946C94729478940F010F01F7
:102F980003950F010F0139959188899C899E8B9023
:102FA8008B92898A8A8A919091940001FD6F010E13
:102FB800000100019A6F0001FD51F5EC40F0000E90
:102FC800496E1C0E486E88ACC4D780A8FED781A86D
:102FD800FED7030E425C000E4358D8B009D0899A38
:102FE80091988A9A0F010F0103850F010F01398506
:102FF80048501D0A4910D8A44CD00001FD6F010E9D
:1030080000010001A26F0001FD51899A91988A9AE6
:103018000E01F5A9FDD74BA001D07C8C4BB001D097
:103028007C9C4BA001D06A8C4BB001D06A9C4BA011
:1030380001D0768C4BB001D0769C4BA001D0708C1F
:103048004BB001D0709C4BB002D08B9001D08B80DC
:103058004BB002D0899C01D0898C4BB002D09190A2
:1030680001D0918080B86BD733EC42F080A8FED7AE
:103078000001FD6F000E00010001A26F0001FD516B
:103088008B90899C91909188000E496E0B0E92EF5F
:103098001FF048501E0A4910D8A44BD0919800013F
:1030A800FD6F010E00010001A26F0001FD514BB040
:1030B80002D08B9001D08B804BB002D0899C01D07C
:1030C800898C4BB002D0919001D091800E01F5A966
:1030D800FDD74BA001D076864BB001D076964BA099
:1030E80001D07C864BB001D07C964BA001D079846E
:1030F8004BB001D0799481B822D733EC42F081A843
:10310800FED70001FD6F000E00010001A26F000153
:10311800FD518B90899C91909188000E01010101CD
:10312800A36F0E0E0101A26F000E496E230E92EFDF
:103138001FF048500E0A4910D8B401D748500F0A5A
:103148004910D8A4F0D081A202D081A419D033ECC0
:1031580043F00001FD6F000E00010001906F0001B7
:10316800FD5109D0EA0E116E600E106E18EC43F096
:1031780000010001902B010E000100019065F2D7BB
:10318800000E456E000E446E95D055EC41F010C00F
:1031980071F011C072F0EF0E00010001715D020EB6
:1031A80000017259D8B07AD085D02BEC43F0EA0EE2
:1031B800116E600E106E18EC43F0EA0E116E600E80
:1031C800106E18EC43F0EA0E116E600E106E18ECDB
:1031D80043F0EA0E116E600E106E18EC43F02FECFF
:1031E80043F0EA0E116E600E106E18EC43F0EA0E12
:1031F800116E600E106E18EC43F0EA0E116E600E40
:10320800106E18EC43F0EA0E116E600E106E18EC9A
:1032180043F02BEC43F0EA0E116E600E106E18ECC2
:1032280043F0EA0E116E600E106E18EC43F0EA0ED1
:10323800116E600E106E18EC43F0EA0E116E600EFF
:10324800106E18EC43F033EC43F0EA0E116E600E8A
:10325800106E18EC43F0EA0E116E600E106E18EC4A
:1032680043F0EA0E116E600E106E18EC43F0EA0E91
:10327800116E600E106E18EC43F055EC41F010C062
:1032880071F011C072F0444A452AEE0E00010001A7
:10329800715D020E00017259D8A006D0030E445C7D
:1032A800000E4558D8A081D7030E445C000E45583F
:1032B800D8B003D081B281B468D72BEC43F00E01AB
:1032C800F5A9FDD77C8C6A9C030E445C000E45581A
:1032D800D8A01ED0B9EC42F001EC43F00E01F5A9DC
:1032E800FDD77B9E759E76967C9679947D9A6C9296
:1032F800669266906C9072907890699E6F9E6696C2
:103308006C9676927C9266946C9472947894EFD0D2
:10331800000100019A05D8B48FEF1FF0000E496E26
:103328000E0E92EF1FF048500B0A4910D8A4E4D0B3
:1033380081A219D02FEC43F00001FD6F000E0001AF
:103348000001906F0001FD5109D0EA0E116E600E68
:10335800106E18EC43F000010001902B010E0001E3
:1033680000019065F2D7000E456E000E446E8FD0B6
:1033780055EC41F010C071F011C072F0EF0E000171
:103388000001715D020E00017259D8B074D07FD06F
:103398002BEC43F0EA0E116E600E106E18EC43F041
:1033A800EA0E116E600E106E18EC43F0EA0E116E04
:1033B800600E106E18EC43F0EA0E116E600E106E7F
:1033C80018EC43F033EC43F0EA0E116E600E106E09
:1033D80018EC43F0EA0E116E600E106E18EC43F014
:1033E800EA0E116E600E106E18EC43F02BEC43F0F1
:1033F800EA0E116E600E106E18EC43F0EA0E116EB4
:10340800600E106E18EC43F0EA0E116E600E106E2E
:1034180018EC43F0EA0E116E600E106E18EC43F0D3
:103428002FEC43F0EA0E116E600E106E18EC43F0AC
:10343800EA0E116E600E106E18EC43F0EA0E116E73
:10344800600E106E18EC43F0EA0E116E600E106EEE
:1034580018EC43F055EC41F010C071F011C072F057
:10346800444A452AEE0E00010001715D020E00017A
:103478007259D8A006D0030E445C000E4558D8A057
:1034880087D7030E445C000E4558D8B003D081A2FC
:1034980081A46ED72BEC43F00E01F5A9FDD77C9CD7
:1034A8006A8C030E445C000E4558D8A031D7B9EC9D
:1034B80042F001EC43F00E01F5A9FDD77B9E759E05
:1034C80076967C9679947D9A6C92669266906C90CA
:1034D80072907890699E6F9E66966C9676927C92B2
:1034E80066946C9472947894899A91988A9A000E4A
:1034F800496E1D0E92EF1FF04850230A4910D8A4B8
:1035080031D0B9EC42F001EC43F00E01F5A9FDD73A
:103518007D9AEA0E116E600E106E18EC43F03BECCB
:1035280043F0000E436E000E426E000E496E220EEE
:10353800486E00010001AF510F0DF3CF77F0F4CFC3
:1035480078F0000E456E000E446E000E000100017A
:103558007A6F000E0001796F0E01F5A9FDD77C96F0
:103568007984EDD44850220A4910D8A418D281B8D9
:1035780031D033EC42F081A8FED7070E00010001DC
:10358800AF6510D00001FD6F010E00010001AF6FA3
:103598000001FD51000E00010001786F1F0E0001AF
:1035A800776F13D000010001AF2900010001AF6F50
:1035B8000F0E00010001772500010001776F000E52
:1035C8000001000178210001786F00010001AF516E
:1035D8001CEC40F0100E00010001795D270E00017F
:1035E8007A59D8A00DD00E01F5A9FDD77C7679744B
:1035F800000E000100017A6F000E0001796F04D0FF
:1036080000010001794B7A2B425000010001775DDF
:103618004350000100017859D8B096D027EC43F008
:10362800EA0E116E600E106E18EC43F0EA0E116E81
:10363800600E106E18EC43F0EA0E116E600E106EFC
:1036480018EC43F0EA0E116E600E106E18EC43F0A1
:1036580037EC43F0EA0E116E600E106E18EC43F072
:10366800EA0E116E600E106E18EC43F0EA0E116E41
:10367800600E106E18EC43F0EA0E116E600E106EBC
:1036880018EC43F0EA0E116E600E106E18EC43F061
:10369800EA0E116E600E106E18EC43F0EA0E116E11
:1036A800600E106E18EC43F0EA0E116E600E106E8C
:1036B80018EC43F0EA0E116E600E106E18EC43F031
:1036C800EA0E116E600E106E18EC43F0EA0E116EE1
:1036D800600E106E18EC43F0EA0E116E600E106E5C
:1036E80018EC43F0EA0E116E600E106E18EC43F001
:1036F800EA0E116E600E106E18EC43F0EA0E116EB1
:10370800600E106E18EC43F027EC43F00001FD6FDB
:10371800000E00010001AF6F0001FD51EA0E116EAD
:10372800600E106E18EC43F0EA0E116E600E106E0B
:1037380018EC43F00E01F5A9FDD77D8A7C967994A3
:10374800000E1CEC40F0E7D355EC41F010C071F0CE
:1037580011C072F0EF0E00010001715D020E000150
:103768007259D8B0A4D003D727EC43F0EA0E116EF3
:10377800600E106E18EC43F0EA0E116E600E106EBB
:1037880018EC43F0EA0E116E600E106E18EC43F060
:10379800EA0E116E600E106E18EC43F0EA0E116E10
:1037A800600E106E18EC43F0EA0E116E600E106E8B
:1037B80018EC43F0EA0E116E600E106E18EC43F030
:1037C800EA0E116E600E106E18EC43F037EC43F001
:1037D800EA0E116E600E106E18EC43F0EA0E116ED0
:1037E800600E106E18EC43F0EA0E116E600E106E4B
:1037F80018EC43F0EA0E116E600E106E18EC43F0F0
:10380800EA0E116E600E106E18EC43F0EA0E116E9F
:10381800600E106E18EC43F0EA0E116E600E106E1A
:1038280018EC43F027EC43F0EA0E116E600E106EB0
:1038380018EC43F0EA0E116E600E106E18EC43F0AF
:10384800EA0E116E600E106E18EC43F0EA0E116E5F
:10385800600E106E18EC43F03BEC43F0EA0E116E6C
:10386800600E106E18EC43F0EA0E116E600E106ECA
:1038780018EC43F0EA0E116E600E106E18EC43F06F
:10388800EA0E116E600E106E18EC43F055EC41F024
:1038980010C071F011C072F0444A452AEE0E0001C2
:1038A8000001715D020E00017259D8A006D0030E06
:1038B800445C000E4558D8A057D7030E445C000E50
:1038C8004558D8A054D627EC43F0EA0E116E600E86
:1038D800106E18EC43F0EA0E116E600E106E18ECC4
:1038E80043F0EA0E116E600E106E18EC43F0EA0E0B
:1038F800116E600E106E18EC43F037EC43F0EA0ED0
:10390800116E600E106E18EC43F0EA0E116E600E28
:10391800106E18EC43F0EA0E116E600E106E18EC83
:1039280043F027EC43F0EA0E116E600E106E18ECAF
:1039380043F0EA0E116E600E106E18EC43F0EA0EBA
:10394800116E600E106E18EC43F0EA0E116E600EE8
:10395800106E18EC43F0B9EC42F001EC43F00E01A4
:10396800F5A9FDD77B9E759E76967C9679947D9A6F
:103978006C92669266906C9072907890699E6F9E39
:1039880066966C9676927C9266946C94729478940F
:10399800899A91988A9A000E496E1E0EBFD2485095
:1039A8001C0A4910D8A4BDD280B8C1D0EA0E116E45
:1039B800600E106E18EC43F0EA0E116E600E106E79
:1039C80018EC43F080A881A80ED088AC0CD080A851
:1039D800FED781B404D0000E496E0B0EA7D0000E9E
:1039E800496E0F0EA3D080A881B8A1D088BC9FD003
:1039F800000E436E000E426E8AD0030E425C000E2B
:103A08004358D8A084D00E01F5A9FDD776967C96A8
:103A180079947C9C6A9C769C0001FD6F020E156E61
:103A28000001FD510001FE6F010E166E0001FE51EE
:103A3800DE0E8FEC40F015C046F016C047F046C0C9
:103A480050F050500F0B4D6E100E5016503A0F0E8E
:103A5800501650500A0DF3504D244D6E46AA04D00E
:103A68000001FD6F010E03D00001FD6F000E4A6ECC
:103A78000001FD510001FD6F010E156E0001FD51A1
:103A88000001FE6F010E166E0001FE51DE0E8FEC76
:103A980040F015C046F016C047F046500F0B4F6E69
:103AA800463A473A0F0E46164750F00B46120F0E8D
:103AB800471646C04EF0070E4E164DC010F04EC0C9
:103AC80011F04FC012F04A50B9EC38F04B04D8A4AA
:103AD8000CD04DC010F04EC011F04FC012F04A503B
:103AE800B9EC38F0899A8A9A04D0898A8A8A01ECD2
:103AF80043F00001FD6F000E000100019A6F000104
:103B0800FD51F5EC40F0000E496E120E486E88AC7F
:103B180074D780A8FED781A8FED7030E425C000E9A
:103B28004358D8B004D0000E496E1C0E486E81B8B8
:103B3800CFD0EA0E116E600E106E18EC43F0EA0E4C
:103B4800116E600E106E18EC43F080B881B81CD06E
:103B580088AC1AD081A8FED748C0A2F149C0A3F109
:103B680000010001AF2900010001AF6F0001000151
:103B7800AF511CEC40F00E01F5A9FDD77B9E759E58
:103B8800000E496E230EA3D080A881B8A1D088BCAE
:103B98009FD0000E436E000E426E8AD0030E425C28
:103BA800000E4358D8A084D00E01F5A9FDD776960B
:103BB8007C9679947C9C6A9C769C0001FD6F020E31
:103BC800156E0001FD510001FE6F010E166E000119
:103BD800FE51DE0E8FEC40F015C046F016C047F0DF
:103BE80046C050F050500F0B4D6E100E5016503A04
:103BF8000F0E501650500A0DF3504D244D6E46AA24
:103C080004D00001FD6F010E03D00001FD6F000E0E
:103C18004A6E0001FD510001FD6F010E156E000195
:103C2800FD510001FE6F010E166E0001FE51DE0E01
:103C38008FEC40F015C046F016C047F046500F0B09
:103C48004F6E463A473A0F0E46164750F00B46124B
:103C58000F0E471646C04EF0070E4E164DC010F018
:103C68004EC011F04FC012F04A50B9EC38F04B0476
:103C7800D8A40CD04DC010F04EC011F04FC012F0B7
:103C88004A50B9EC38F0899A8A9A04D0898A8A8A83
:103C980001EC43F00001FD6F000E000100019A6F76
:103CA8000001FD51F5EC40F0000E496E120E486E11
:103CB80088AC74D780A8FED781A8FED7030E425CD3
:103CC800000E4358D8B004D0000E496E1C0E486E42
:103CD80088BCA3EF17F0EA0E116E600E106E18EC98
:103CE80043F0EA0E116E600E106E18EC43F080B8C7
:103CF80081A86ED088BC6CD088ACFED70E01F5A91F
:103D0800FDD766926C9276867C867994768C708CD8
:103D180066807B927D8A00010001B06703D0698EBE
:103D2800789007D000010001B005D8A402D0699EA0
:103D380078804C6603D06C80729005D04C04D8A46F
:103D480002D06C9072800001FD6F000E000100012E
:103D58009A6F0001FD51000E496E0E0E486E00016B
:103D6800FD6F020E00010001BC6F0001FD51000152
:103D7800FD6F000E00010001E56F0001FD51000E0E
:103D880001010101A56F000E0101A46F0001FD6F83
:103D9800000E00010001896F0001FD51000E0001B5
:103DA8000001846F000E0001836F0001FD6F010E9A
:103DB8004F6E0001FD51898A91888A8A0F010F018F
:103DC80003850F010F013985F5EC40F0A3EF17F0DB
:103DD80080A881B8A3EF17F088BCA3EF17F0000EF6
:103DE800436E000E426E8AD0030E425C000E4358AA
:103DF800D8A084D00E01F5A9FDD776967C96799443
:103E08007C9C6A9C769C0001FD6F020E156E000179
:103E1800FD510001FE6F010E166E0001FE51DE0E0F
:103E28008FEC40F015C046F016C047F046C050F081
:103E380050500F0B4D6E100E5016503A0F0E501674
:103E480050500A0DF3504D244D6E46AA04D000017F
:103E5800FD6F010E03D00001FD6F000E4A6E0001D8
:103E6800FD510001FD6F010E156E0001FD510001AD
:103E7800FE6F010E166E0001FE51DE0E8FEC40F053
:103E880015C046F016C047F046500F0B4F6E463A25
:103E9800473A0F0E46164750F00B46120F0E4716BC
:103EA80046C04EF0070E4E164DC010F04EC011F031
:103EB8004FC012F04A50B9EC38F04B04D8A40CD0DB
:103EC8004DC010F04EC011F04FC012F04A50B9EC7E
:103ED80038F0899A8A9A04D0898A8A8A01EC43F050
:103EE8000001FD6F000E000100019A6F0001FD51F5
:103EF800F5EC40F0000E496E120E486E88AC74D78F
:103F080080A8FED781A8FED7030E425C000E435856
:103F1800D8B0A3EF17F0000E496E1C0E486EA3EF41
:103F280017F04850120A4910D8A4A3EF17F0000E52
:103F380000010001826F2A0E0001816F1200010E3C
:103F48000DEC43F000010001A86F190E0DEC43F0D1
:103F580000010001A96F0C0E00010001A86509D03D
:103F680000010001A851F40F4D6E0101DA6F010E36
:103F780005D0A8C04DF00101DA6F000E4A6E0101AC
:103F8800DA5100010001A9510F0B4F6E0001A93B46
:103F98000F0EA917A9C04EF00E01F5A9FDD76C8622
:103FA80072947D8A78944B04D8A411D04DC010F037
:103FB8004EC011F04FC012F04A50B9EC38F08A9A4E
:103FC800899A0E01F5A9FDD77C86799409D08A8A49
:103FD800898A01EC43F00E01F5A9FDD77C96798416
:103FE80081B832D081A8FED7030E116EE80E106E8C
:103FF80018EC43F04D500B0AD8A419D00101DA6F20
:104008000C0E4D6E0101DA510E01F5A9FDD74A04D7
:10401800D8A406D07B8E759E0101DA6F000E05D0FC
:104028007B9E758E0101DA6F010E4A6E08D04D50E5
:104038000C0AD8A407D00101DA6F010E4D6E0101F8
:10404800DA5102D04D284D6E88BCB4D0000E000164
:104058000001706F000E00016F6F33EC42F013D057
:10406800510E000100016F5DC30E00017059D8B0F8
:104078000CD0000100016F4B702B000E116E1E0E4C
:10408800106E18EC43F088ACEBD7510E000100011C
:104098006F5DC30E00017059D8A03ED0000E00011C
:1040A8000001826F280E0001816F0E01F5A9FDD76E
:1040B80072846C9678847D9A79847B9E759E0101C2
:1040C800DA6F000E4F6E0101DA51110E0DEC43F05C
:1040D8004E6EB9EC42F001EC43F04FC010F04E5078
:1040E80001EC3DF016D04B04D8A408D08A9A899ADE
:1040F8004FC010F04E5001EC3DF00BD08A8A898AEF
:104108000101DA6F000E106E0101DA510A0E01EC9E
:104118003DF088BC84D0E7D74DC010F0116A000E7E
:10412800136E0A0E126E22EC3FF01038F00B0001ED
:1041380000019C6F4DC010F0116A000E136E0A0E3C
:10414800126ECEEC3FF01050000100019C250001DA
:1041580000019C6F4A04D8A403D0000100019C8B85
:10416800000100019C8D4DC010F04EC011F04FC0F1
:1041780012F04A50B9EC38F04A04D8A40DD0010125
:10418800DA6F010E00010001FC6F0101DA514D5098
:104198000C0F7AEC42F00BD00101DA6F010E00012E
:1041A8000001FC6F0101DA514D507AEC42F0F5EC58
:1041B80040F035D080B8F7D680A8FED7030E116E30
:1041C800E80E106E18EC43F04D04D8A405D0010198
:1041D800DA6F0C0E4D6E16D04D500C0AD8A41CD0B8
:1041E8000101DA6F0B0E4D6E0101DA510E01F5A9CE
:1041F800FDD74A04D8A409D07B8E759E0101DA6FD9
:10420800000E08D00101DA51CED67B9E758E0101D1
:10421800DA6F010E4A6EF6D74D044D6EC4D6510EB4
:10422800000100016F5DC30E00017059D8B0120083
:104238004B04D8A411D04DC010F04EC011F04FC09F
:1042480012F04A50B9EC38F0899A8A9A0E01F5A909
:10425800FDD77C86799409D0898A8A8AB9EC42F09C
:104268000E01F5A9FDD77C96798481B822D081A862
:10427800FED7030E116EE80E106E18EC43F04F5087
:10428800090AD8A414D04E50050AD8A407D00101B1
:10429800DA6F000E4E6E0101DA5102D04E284E6ED2
:1042A8000101DA6F000E4F6E0101DA5102D04F287A
:1042B8004F6E88BC23EF27F0000E00010001706FDD
:1042C800000E00016F6F33EC42F013D0510E000165
:1042D80000016F5DC30E00017059D8B00CD0000109
:1042E80000016F4B702B000E116E1E0E106E18EC35
:1042F80043F088ACEBD7510E000100016F5DC30E8F
:1043080000017059D8A02CD0000E00010001826F66
:10431800040E0001816F0E01F5A9FDD77C9612D01D
:104328004B04D8A411D04DC010F04EC011F04FC0AE
:1043380012F04A50B9EC38F08A9A899A0E01F5A918
:10434800FDD77C86799409D08A8A898A01EC43F062
:104358000E01F5A9FDD77C96798488BC1200E0D7B8
:1043680033EC42F088ACFED70E01F5A9FDD77C9658
:1043780079944A04D8A417D00101DA6F010E00011C
:104388000001FC6F0101DA514D500C0F7AEC42F03C
:104398004D500C0F00010001606F4D500C0F0001D3
:1043A8000001A86F0FD00101DA6F010E00010001B2
:1043B800FC6F0101DA514D507AEC42F04DC060F0CB
:1043C8004DC0A8F04EC0A9F00001A93BF00EA917F6
:1043D8004F5000010001A927A9C066F00101DA6F5A
:1043E800190E00010001FC6F0101DA510001000102
:1043F800A9517AEC42F00101DA6F1A0E00010001AE
:10440800FC6F0101DA5100010001A9517AEC42F078
:104418000101DA6F000E00010001616F0101DA513C
:104428000101DA6F000E00010001626F0101DA512B
:104438000101DA6F000E00010001636F0101DA511A
:104448000101DA6F000E00010001646F0101DA5109
:104458000101DA6F000E00010001656F0101DA51F8
:104468000101DA6F000E00010001676F0101DA51E6
:104478000101DA6F000E00010001686F0101DA51D5
:104488000101DA6F000E00010001696F0101DA51C4
:104498000101DA6F000E000100016A6F0101DA51B3
:1044A8000101DA6F000E000100016B6F0101DA51A2
:1044B8004DC010F04EC011F04FC012F04A50B9EC88
:1044C80038F0000E00010001826F050E0001816FB7
:1044D800110E0DEC43F000010001A66F0001000170
:1044E800A651020AD8A430D00C0E00010001A8651C
:1044F80005D000010001A851F40F04D0000100010B
:10450800A8510C0F00010001616F0001000160510A
:1045180000010001615DD8B006D060C0DCF061C068
:1045280060F0DCC061F0A9C067F00101DA6F1B0E12
:1045380000010001FC6F0101DA5100010001A951DD
:104548007AEC42F0D2EF26F000010001A651030AEE
:10455800D8A45FD000010001A8510101DA6FDB6B1C
:10456800060E0101DA27000EDB230101DB51800A68
:10457800800F190ED8B4DA5DD8A005D0000100016B
:10458800A851EE0F04D000010001A851060F000148
:104598000001616F0001000161510101DA6FDB6BFD
:1045A800060E0101DA27000EDB230101DB51800A28
:1045B800800F190ED8B4DA5DD8A005D0000100012B
:1045C8006151EE0F04D0000100016151060F000196
:1045D8000001626FA9C067F0A9C068F00101DA6F35
:1045E8001B0E00010001FC6F0101DA5100010001FE
:1045F800A9517AEC42F00101DA6F1C0E00010001AA
:10460800FC6F0101DA5100010001A9517AEC42F076
:10461800C5D300010001A651040AD8A48ED0000118
:104628000001A8510101DA6FDB6B060E0101DA27E0
:10463800000EDB230101DB51800A800F190ED8B46C
:10464800DA5DD8A005D000010001A851EE0F04D012
:1046580000010001A851060F00010001616F00016F
:10466800000161510101DA6FDB6B060E0101DA27E7
:10467800000EDB230101DB51800A800F190ED8B42C
:10468800DA5DD8A005D0000100016151EE0F04D019
:10469800000100016151060F00010001626F000175
:1046A800000162510101DA6FDB6B060E0101DA27A6
:1046B800000EDB230101DB51800A800F190ED8B4EC
:1046C800DA5DD8A005D0000100016251EE0F04D0D8
:1046D800000100016251060F00010001636FA9C0CB
:1046E80067F0A9C068F0A9C069F00101DA6F1B0E74
:1046F80000010001FC6F0101DA5100010001A9511C
:104708007AEC42F00101DA6F1C0E00010001FC6F27
:104718000101DA5100010001A9517AEC42F00101CE
:10472800DA6F1D0E00010001FC6F0101DA51000172
:104738000001A9517AEC42F031D300010001A651E1
:10474800050AD8A43AD24EC0BDF00A0E00010001F5
:10475800BD03F3500001BD6F4F5000010001BD279C
:1047680000010001BD510101DA6FDB6B300E010160
:10477800DA27000EDB230101DB51800A800F3C0E93
:10478800D8B4DA5DD8A028D000010001A8510101F1
:10479800DA6FDB6B050E0101DA27000EDB2301015E
:1047A800DB51800A800F190ED8B4DA5DD8A005D085
:1047B80000010001A851ED0F04D000010001A8512B
:1047C800050F00010001616F00010001BD51F40FE8
:1047D80000010001BD6F24D000010001A8510101B2
:1047E800DA6FDB6B040E0101DA27000EDB2301010F
:1047F800DB51800A800F190ED8B4DA5DD8A005D035
:1048080000010001A851EC0F04D000010001A851DB
:10481800040F00010001616F300E00010001BD2787
:104828000001BDC010F0116A000E136E0A0E126E60
:1048380022EC3FF01038F00B4E6E0001BDC010F0B6
:10484800116A000E136E0A0E126ECEEC3FF0105075
:104858004F6E4E504F2400010001676F0101DA6F5F
:104868001B0E00010001FC6F0101DA51000100017B
:1048780067517AEC42F000010001BD510101DA6F85
:10488800DB6B300E0101DA27000EDB230101DB515F
:10489800800A800F3C0ED8B4DA5DD8A028D0000179
:1048A800000161510101DA6FDB6B050E0101DA27A6
:1048B800000EDB230101DB51800A800F190ED8B4EA
:1048C800DA5DD8A005D0000100016151ED0F04D0D8
:1048D800000100016151050F00010001626F000134
:1048E8000001BD51F40F00010001BD6F24D000018B
:1048F800000161510101DA6FDB6B040E0101DA2757
:10490800000EDB230101DB51800A800F190ED8B499
:10491800DA5DD8A005D0000100016151EC0F04D088
:10492800000100016151040F00010001626F300EA7
:1049380000010001BD270001BDC010F0116A000E82
:10494800136E0A0E126E22EC3FF01038F00B4E6E0A
:104958000001BDC010F0116A000E136E0A0E126E2F
:10496800CEEC3FF010504F6E4E504F240001000126
:10497800686F0101DA6F1C0E00010001FC6F010174
:10498800DA510001000168517AEC42F0000100019F
:10499800BD510101DA6FDB6B300E0101DA27000E21
:1049A800DB230101DB51800A800F3C0ED8B4DA5DAD
:1049B800D8A028D00001000162510101DA6FDB6B39
:1049C800050E0101DA27000EDB230101DB51800A05
:1049D800800F190ED8B4DA5DD8A005D00001000107
:1049E8006251ED0F04D0000100016251050F000172
:1049F8000001636F00010001BD51F40F00010001C7
:104A0800BD6F24D000010001A8510101DA6FDB6BF2
:104A1800040E0101DA27000EDB230101DB51800AB5
:104A2800800F190ED8B4DA5DD8A005D000010001B6
:104A38006251EC0F04D0000100016251040F000123
:104A48000001636F300E00010001BD270001BDC0E9
:104A580010F0116A000E136E0A0E126E22EC3FF06F
:104A68001038F00B4E6E0001BDC010F0116A000E38
:104A7800136E0A0E126ECEEC3FF010504F6E4E5071
:104A88004F2400010001696F0101DA6F1D0E00015A
:104A98000001FC6F0101DA510001000169517AEC53
:104AA80042F000010001BD510101DA6FDB6B300EED
:104AB8000101DA27000EDB230101DB51800A800F98
:104AC8003C0ED8B4DA5DD8A028D0000100016351AB
:104AD8000101DA6FDB6B050E0101DA27000EDB231B
:104AE8000101DB51800A800F190ED8B4DA5DD8A015
:104AF80005D0000100016351ED0F04D00001000151
:104B08006351050F00010001646F00010001BD51F0
:104B1800F40F00010001BD6F24D000010001A8516D
:104B28000101DA6FDB6B040E0101DA27000EDB23CB
:104B38000101DB51800A800F190ED8B4DA5DD8A0C4
:104B480005D0000100016351EC0F04D00001000101
:104B58006351040F00010001646F300E0001000171
:104B6800BD270001BDC010F0116A000E136E0A0EB9
:104B7800126E22EC3FF01038F00B4E6E0001BDC0F3
:104B880010F0116A000E136E0A0E126ECEEC3FF092
:104B980010504F6E4E504F24000100016A6F010102
:104BA800DA6F1E0E00010001FC6F0101DA510001ED
:104BB80000016A517AEC42F0F1D000010001A651DF
:104BC800060AD8A4EBD000010001A8510101DA6F50
:104BD800DB6B040E0101DA27000EDB230101DB5138
:104BE800800A800F190ED8B4DA5DD8A005D000016C
:104BF8000001A851EC0F04D000010001A851040FD6
:104C080000010001616F0001000161510101DA6FCB
:104C1800DB6B040E0101DA27000EDB230101DB51F7
:104C2800800A800F190ED8B4DA5DD8A005D000012B
:104C380000016151EC0F04D0000100016151040F23
:104C480000010001626F0001000162510101DA6F89
:104C5800DB6B040E0101DA27000EDB230101DB51B7
:104C6800800A800F190ED8B4DA5DD8A005D00001EB
:104C780000016251EC0F04D0000100016251040FE1
:104C880000010001636F0001000163510101DA6F47
:104C9800DB6B040E0101DA27000EDB230101DB5177
:104CA800800A800F190ED8B4DA5DD8A005D00001AB
:104CB80000016351EC0F04D0000100016351040F9F
:104CC80000010001646F0001000164510101DA6F05
:104CD800DB6B040E0101DA27000EDB230101DB5137
:104CE800800A800F190ED8B4DA5DD8A005D000016B
:104CF80000016451EC0F04D0000100016451040F5D
:104D080000010001656FA9C067F0A9C068F0A9C0DB
:104D180069F0A9C06AF0A9C06BF00101DA6F1B0E37
:104D280000010001FC6F0101DA5100010001A951E5
:104D38007AEC42F00101DA6F1C0E00010001FC6FF1
:104D48000101DA5100010001A9517AEC42F0010198
:104D5800DA6F1D0E00010001FC6F0101DA5100013C
:104D68000001A9517AEC42F00101DA6F1E0E000130
:104D78000001FC6F0101DA5100010001A9517AEC30
:104D880042F00101DA6F1F0E00010001FC6F010102
:104D9800DA5100010001A9517AEC42F00101DA6F01
:104DA800020E00010001FC6F0101DA51000100014F
:104DB80060517AEC42F00101DA6F030E0001000144
:104DC800FC6F0101DA510001000161517AEC42F0F7
:104DD8000101DA6F050E00010001FC6F0101DA51D3
:104DE8000001000162517AEC42F00101DA6F160EFF
:104DF80000010001FC6F0101DA510001000163515B
:104E08007AEC42F00101DA6F170E00010001FC6F25
:104E18000101DA510001000164517AEC42F001010C
:104E2800DA6F180E00010001FC6F0101DA51000170
:104E3800000165517AEC42F0F5EC40F0120080B8C0
:104E480013EF21F080A8FED7030E116EE80E106E46
:104E580018EC43F04F6613D04E6607D00101DA6FA5
:104E6800050E4E6E0101DA5102D04E044E6E01015C
:104E7800DA6F090E4F6E0101DA5113EF21F04F047A
:104E88004F6E13EF21F00E01F5A9FDD77B9E759E9D
:104E98007D9A7692799A76967C9679947C9C6A9C8F
:104EA800769C709C6C966C9466927B826C926690F1
:104EB8006C9072907890699E0001FE6F000E01015F
:104EC8000101DA6F0001FE51B9EC42F001EC43F048
:104ED8000001FE6F000E4F6E0001FE510001FE6FD3
:104EE800000E00010001D56F0001FE518B928B90DE
:104EF800899A9188919491908A9ACBEC42F0FDEC32
:104F080041F04B04D8A403D08A9A899A02D08A8A9D
:104F1800898A88BC63D0000E00010001706F000E02
:104F280000016F6F33EC42F013D0510E0001000105
:104F38006F5DC30E00017059D8B00CD0000100019C
:104F48006F4B702B000E116E1E0E106E18EC43F096
:104F580088ACEBD7510E000100016F5DC30E000154
:104F68007059D8A011D00E01F5A9FDD77B926C928B
:104F780076826C84000E00010001826F040E00012D
:104F8800816F88BCA5D1FDD7F5EC40F00001000188
:104F9800C66704D00001FE6F010E0FD000010001AA
:104FA800C96704D00001FE6F020E07D0000100019E
:104FB800CE6707D00001FE6F030E4E6E0001FE5152
:104FC80007D0000E00010001826F090E0001816FF9
:104FD8004FC010F04E5001EC3DF07AD180B8BAD0F5
:104FE80033EC42F081B8B6D033EC42F026D0899A3F
:104FF80091988A9A8B928B8091949180EA0E116E87
:10500800600E106E18EC43F0EA0E116E600E106E12
:1050180018EC43F08B928B9091949190EA0E116E5C
:10502800600E106E18EC43F0EA0E116E600E106EF2
:1050380018EC43F001010101DA2B040E0101010112
:10504800DA65D5D70001FE6F000E01010101DA6FA4
:105058000001FE5191880001FE6F000E0001000161
:10506800C66F0001FE510001FE6F000E0001000135
:10507800C96F0001FE510001FE6F000E0001000122
:10508800CE6F0001FE510001FE6F000E000100010D
:10509800C76F0001FE510001FE6F000E0001000104
:1050A800CA6F0001FE510001FE6F000E00010001F1
:1050B800CF6F0001FE510001FE6F0A0E00010001D2
:1050C800FC6F0001FE51000E7AEC42F033EC42F026
:1050D8000001FE6F0B0E00010001FC6F0001FE5184
:1050E800000E7AEC42F033EC42F00001FE6F0C0E39
:1050F80000010001FC6F0001FE51000E7AEC42F045
:1051080033EC42F00001FE6F120E00010001FC6F4B
:105118000001FE51000E7AEC42F033EC42F000013F
:10512800FE6F130E00010001FC6F0001FE51000E1E
:105138007AEC42F033EC42F00001FE6F140E0001ED
:105148000001FC6F0001FE51000E7AEC42F081B8BC
:1051580080A8FDD781B8D5D633EC42F080B8D1D637
:1051680033EC42F026D0899A91988A9A8B928B8058
:1051780091949180EA0E116E600E106E18EC43F057
:10518800EA0E116E600E106E18EC43F08B928B9045
:1051980091949190EA0E116E600E106E18EC43F027
:1051A800EA0E116E600E106E18EC43F00101010159
:1051B800DA2B040E01010101DA65D5D70001FE6F73
:1051C800000E01010101DA6F0001FE519188000112
:1051D800FE6F000E00010001C66F0001FE510001C4
:1051E800FE6F000E00010001C96F0001FE510001B1
:1051F800FE6F000E00010001CE6F0001FE5100019C
:10520800FE6F000E00010001C76F0001FE51000192
:10521800FE6F000E00010001CA6F0001FE5100017F
:10522800FE6F000E00010001CF6F0001FE5100016A
:10523800FE6F0A0E00010001FC6F0001FE51000E16
:105248007AEC42F033EC42F00001FE6F0B0E0001E5
:105258000001FC6F0001FE51000E7AEC42F033ECC5
:1052680042F00001FE6F0C0E00010001FC6F00010E
:10527800FE51000E7AEC42F033EC42F00001FE6F72
:10528800120E00010001FC6F0001FE51000E7AECC5
:1052980042F033EC42F00001FE6F130E00010001F2
:1052A800FC6F0001FE51000E7AEC42F033EC42F044
:1052B8000001FE6F140E00010001FC6F0001FE5199
:1052C800000E7AEC42F081A8FED780B81AD6FBD738
:1052D8000001FE6F000E00010001AC6F0001FE51DD
:1052E800000100018151090A8211D8B4120000019D
:1052F8000001D505D8A44DD091884E04D8A410D06B
:1053080000010001D65100010001C919D8B408D024
:1053180000010001D65100010001CE19D8A428D0FF
:105328004E50020AD8A410D000010001D651000145
:105338000001C619D8B408D000010001D6510001F7
:105348000001CE19D8A414D04E50030AD8A425D0F1
:1053580000010001D65100010001C619D8B41DD0C2
:1053680000010001D65100010001C919D8B415D0B7
:105378000001FE6F010E00010001AC6F0001FE513B
:10538800D6C099F0899A8B928B80918491908A9A51
:1053980004D0898A9188899E8A8A81B816D00001AA
:1053A8000001AC05D8A411D033EC42F081A8FED797
:1053B8000E01F5A9FDD766826C920001FE6F010E01
:1053C80000010001A46F0001FE5180B815D0000152
:1053D8000001AC05D8A410D033EC42F080A8FED769
:1053E8000E01F5A9FDD76C820001FE6F010E0001C8
:1053F8000001A46F0001FE5188BC72D733EC42F063
:1054080088ACFED700010001AC670CD088ACFED791
:10541800F5EC40F0000E00010001826F090E00015A
:10542800816F120000010001A405D8A459D700011A
:105438000001AC05D8A454D74E04D8A45DD000010F
:105448000001D505D8A44FD00001000199510001F1
:105458000001C919D8B447D00001000199510001D1
:105468000001CE19D8B43FD0000E6CB2010EFF0A6D
:1054780000010001C76F0001FE6F0A0E0001000164
:10548800FC6F0001FE5100010001C7517AEC42F0A7
:1054980099C0C6F00001FE6F000E00010001D66F32
:1054A8000001FE510001FE6F000E00010001D56FE2
:1054B8000001FE510001FE6F000E00010001AC6FFB
:1054C8000001FE510001FE6F120E00010001FC6F89
:1054D8000001FE5100010001C6517AEC42F00E01B4
:1054E800F5A9FDD762D04C6663D00001FE6F000EAF
:1054F8004E6E0001FE51A6D04E50020AD8A45CD0D0
:1055080000010001D505D8A453D00001000199512C
:1055180000010001C619D8B44BD00001000199510F
:1055280000010001CE19D8B443D0000E6CB2010EB0
:10553800FF0A00010001CA6F0001FE6F0B0E000197
:105548000001FC6F0001FE5100010001CA517AEC14
:1055580042F033EC42F099C0C9F00001FE6F000E32
:1055680000010001D56F0001FE510001FE6F000E21
:1055780000010001AC6F0001FE510001FE6F000E3A
:1055880000010001D66F0001FE510001FE6F130EED
:1055980000010001FC6F0001FE5100010001C9512A
:1055A8007AEC42F00E01F5A9FDD766926C9246D0CE
:1055B8000001FE6F030E9CD74E50030AD8A442D0B8
:1055C80000010001D505D8A43DD000010001995182
:1055D80000010001C619D8B435D000010001995165
:1055E80000010001C919D8B42DD0000E6CB2010E0B
:1055F800FF0A00010001CF6F0001FE6F0C0E0001D1
:105608000001FC6F0001FE5100010001CF517AEC4E
:1056180042F033EC42F099C0CEF00001FE6F140E58
:1056280000010001FC6F0001FE5100010001CE5194
:105638007AEC42F00E01F5A9FDD77B828B928B9014
:10564800919491904E284E6E4E50040AD8A412D0D0
:10565800000E00010001826F090E0001816FF5EC58
:1056680040F00001FE6F000E00010001A46F000170
:10567800FE5112000001FE6F000E00010001A46F30
:105688000001FE514FC010F04E5001EC3DF028D6FD
:105698000E01F5A9FDD77B9E759E7D9A7692799A23
:1056A80076967C9679947C9C6A9C769C709C6C9689
:1056B8006C9466927B826C920001FE6F000E010171
:1056C8000101DA6F0001FE51B9EC42F001EC43F040
:1056D8000001FE6F000E4F6E0001FE510001FE6FCB
:1056E800010E4E6E0001FE514FC010F04E5001ECFD
:1056F8003DF00001FE6F000E00010001D56F0001B2
:10570800FE518B928B90899A9198919491908A9A54
:10571800CBEC42F0FDEC41F000010001D505D8A426
:105728008DD091884E04D8A410D000010001D65124
:1057380000010001C919D8B408D000010001D651F0
:1057480000010001CE19D8A428D04E50020AD8A4CE
:1057580010D000010001D65100010001C619D8B4CB
:1057680008D000010001D65100010001CE19D8A4CB
:1057780014D04E50030AD8A418D000010001D65105
:1057880000010001C619D8B410D000010001D6519B
:1057980000010001C919D8B408D0D6C099F0899A77
:1057A8008B928B80918491908A9A000100019B676B
:1057B80049D00001FE6F010E00010001C76F000112
:1057C800FE510001FE6F0A0E00010001FC6F00018E
:1057D800FE51010E7AEC42F0D6C0C6F00001FE6F11
:1057E800000E00010001D66F0001FE510001FE6F9E
:1057F800000E00010001D56F0001FE510001FE6F8F
:10580800120E00010001FC6F0001FE5100010001B1
:10581800C6517AEC42F00E01F5A9FDD766926C925A
:105828008B928B9091949190000E00010001826FF1
:10583800090E0001816FF5EC40F01200898A918809
:10584800899E8A8A81B8CBD033EC42F080B8B8D030
:1058580033EC42F026D0899A91988A9A8B928B8061
:1058680091949180EA0E116E600E106E18EC43F060
:10587800EA0E116E600E106E18EC43F08B928B904E
:1058880091949190EA0E116E600E106E18EC43F030
:10589800EA0E116E600E106E18EC43F00101010162
:1058A800DA2B040E01010101DA65D5D70001FE6F7C
:1058B800000E01010101DA6F0001FE51898E00011D
:1058C800FE6F000E00010001C76F0001FE510001CC
:1058D800FE6F000E00010001CA6F0001FE510001B9
:1058E800FE6F000E00010001CF6F0001FE510001A4
:1058F800FE6F000E00010001C66F0001FE5100019D
:10590800FE6F000E00010001C96F0001FE51000189
:10591800FE6F000E00010001CE6F0001FE51000174
:10592800FE6F0A0E00010001FC6F0001FE51000E1F
:105938007AEC42F033EC42F00001FE6F0B0E0001EE
:105948000001FC6F0001FE51000E7AEC42F033ECCE
:1059580042F00001FE6F0C0E00010001FC6F000117
:10596800FE51000E7AEC42F033EC42F00001FE6F7B
:10597800120E00010001FC6F0001FE51000E7AECCE
:1059880042F033EC42F00001FE6F130E00010001FB
:10599800FC6F0001FE51000E7AEC42F033EC42F04D
:1059A8000001FE6F140E00010001FC6F0001FE51A2
:1059B800000E7AEC42F081A8FED780B808D0FBD759
:1059C80081A8FED70E01F5A9FDD766826C92000169
:1059D800FE6F010E00010001A46F0001FE5188BC9A
:1059E8006ED100010001D56711D0000100019B5163
:1059F800D8B40CD088ACFED7F5EC40F0000E00010E
:105A08000001826F090E0001816F1200000E000173
:105A18000001706F000E00016F6F33EC42F013D07D
:105A2800510E000100016F5DC30E00017059D8B01E
:105A38000CD0000100016F4B702B000E116E1E0E72
:105A4800106E18EC43F088ACEBD7510E0001000142
:105A58006F5DC30E00017059D8A011D00E01F5A9D1
:105A6800FDD77B926C9276826C84000E0001000157
:105A7800826F040E0001816F88BC1200FDD70001FF
:105A88000001A405D8A41BD14E04D8A455D0000108
:105A98000001D505D8A447D00001000199510001A3
:105AA8000001C919D8B43FD0000100019951000183
:105AB8000001CE19D8B437D0000E6CB2010EFF0A1F
:105AC80000010001C76F0001FE6F0A0E000100010E
:105AD800FC6F0001FE5100010001C7517AEC42F051
